:020000040800F2
:10000000002000204DA60008579D0008599D0008BB
:1000100000000000000000000000000000000000E0
:10002000000000000000000000000000659D0008C6
:100030000000000000000000679D0008699D0008A6
:100040009DA60008000000009DA600089DA60008CF
:100050009DA600082D9D0008379D0008419D0008C1
:10006000000000009DA600089DA60008719D0008E4
:100070009DA600089DA600089DA60008000000009F
:100080009DA60008E99C0008000000009DA600084D
:10009000059D0008199D00089DA600089DA6000862
:1000A0009DA600089DA600089DA600089DA6000824
:1000B000D99C0008000000000000000000000000C3
:1000C00010B5064C2378002B07D1054B002B02D02E
:1000D000044800E000BF0123237010BD1000002081
:1000E000000000000CA70008044B10B5002B03D043
:1000F0000349044800E000BF10BDC04600000000F6
:10010000140000200CA70008002243088B4274D37F
:1001100003098B425FD3030A8B4244D3030B8B4208
:1001200028D3030C8B420DD3FF22090212BA030C11
:100130008B4202D31212090265D0030B8B4219D3F2
:1001400000E0090AC30B8B4201D3CB03C01A524112
:10015000830B8B4201D38B03C01A5241430B8B425A
:1001600001D34B03C01A5241030B8B4201D30B0343
:10017000C01A5241C30A8B4201D3CB02C01A52416A
:10018000830A8B4201D38B02C01A5241430A8B422D
:1001900001D34B02C01A5241030A8B4201D30B0216
:1001A000C01A5241CDD2C3098B4201D3CB01C01A30
:1001B000524183098B4201D38B01C01A524143093A
:1001C0008B4201D34B01C01A524103098B4201D328
:1001D0000B01C01A5241C3088B4201D3CB00C01A95
:1001E000524183088B4201D38B00C01A524143080D
:1001F0008B4201D34B00C01A5241411A00D2014632
:10020000524110467047FFE701B5002000F0F0F8BA
:1002100002BDC0460029F7D076E7704703460B437E
:100220007FD4002243088B4274D303098B425FD3EF
:10023000030A8B4244D3030B8B4228D3030C8B421B
:100240000DD3FF22090212BA030C8B4202D3121201
:10025000090265D0030B8B4219D300E0090AC30BD6
:100260008B4201D3CB03C01A5241830B8B4201D383
:100270008B03C01A5241430B8B4201D34B03C01A6C
:100280005241030B8B4201D30B03C01A5241C30AE4
:100290008B4201D3CB02C01A5241830A8B4201D355
:1002A0008B02C01A5241430A8B4201D34B02C01A3F
:1002B0005241030A8B4201D30B02C01A5241CDD2E4
:1002C000C3098B4201D3CB01C01A524183098B422F
:1002D00001D38B01C01A524143098B4201D34B0118
:1002E000C01A524103098B4201D30B01C01A52417B
:1002F000C3088B4201D3CB00C01A524183088B4202
:1003000001D38B00C01A524143088B4201D34B00EA
:10031000C01A5241411A00D201465241104670475C
:100320005DE0CA0F00D04942031000D34042534061
:1003300000229C4603098B422DD3030A8B4212D321
:10034000FC22890112BA030A8B420CD38901921153
:100350008B4208D3890192118B4204D389013AD090
:10036000921100E08909C3098B4201D3CB01C01A65
:10037000524183098B4201D38B01C01A5241430978
:100380008B4201D34B01C01A524103098B4201D366
:100390000B01C01A5241C3088B4201D3CB00C01AD3
:1003A000524183088B4201D38B00C01A5241D9D2EB
:1003B00043088B4201D34B00C01A5241411A00D26C
:1003C0000146634652415B10104601D34042002B68
:1003D00000D54942704763465B1000D3404201B5E7
:1003E000002000F005F802BD0029F8D016E770479C
:1003F0007047C046844608006146FFE71FB500F01D
:100400008BFB002801D40021C8421FBD10B500F0AD
:100410000BFB4042013010BD10B500F07DFB002801
:1004200001DB002010BD012010BDC04610B500F05A
:1004300073FB002801DD002010BD012010BDC04667
:1004400010B500F019FB002801DC002010BD0120D0
:1004500010BDC04610B500F00FFB002801DA0020E7
:1004600010BD012010BDC0469E2110B5C905041C59
:10047000FFF7F0FF002803D1201C00F07DFE10BD27
:100480009E21201CC90500F0D3FC00F075FE8023DE
:100490001B069C466044F2E770B500220C4B04003A
:1004A0000D0001F0F1FD002804D12000290001F029
:1004B00033FD70BD064B00222000290001F090F9A9
:1004C00001F02AFD80231B069C466044F1E7C046EC
:1004D0000000E041F8B5CE46474643025A0A4E02B4
:1004E0004500C40F480091462D0E720A000E944636
:1004F00080B59B09C90FB6092A1A8C4221D0002A5F
:100500000DDD00282DD1002E00D18DE0511E012AD5
:1005100000D11DE1FF2A00D1ABE00A0027E0002A4C
:100520004DD0421B002D00D0CCE0002B00D179E053
:10053000541E012A00D128E1FF2A00D197E02200B1
:10054000C5E0002A00DC96E000284FD0FF2D00D146
:100550008FE08021C9040E431B2A51DD2A0001339C
:1005600018E0FF2D00D184E08021C9040E43012151
:100570001B2A08DC31002020D140821A964032002C
:10058000501E824111435B1A5A0159D407212A0097
:10059000194049D00F211940042900D004335901D2
:1005A00042D5501CFE2A3AD09B01C0B25B0AC0055E
:1005B0001843E4072043C0BCB946B046F8BDFE204E
:1005C00080466F1C38004746074200D08EE0002D61
:1005D00000D0B4E0002B00D1DBE0002E6CD0981BE3
:1005E000450100D4F7E00C00F31A3DE0002E1BD0CB
:1005F000511E012A00D182E0FF2A3AD00A00ABE75F
:1006000031002020D140821A96403200501E824193
:100610000A439B185A01B9D56A1CFE2D75D1FF20DB
:100620000023C4E70C003300DB08FF2A46D1002B6F
:10063000F5D08022D20313435B02FF205B0AB6E7AA
:100640009F01BF09380001F029FD05388740854228
:1006500024DC3B002021421B0132D3408A1A974000
:100660007A1E974100223B43590793D197E70C002C
:100670003300DB08DBE7002A14D0421B002D4BD1EE
:10068000002BD0D0511E012A00D19EE0FF2AEFD0CE
:100690000A001B2A5FDD0200731C7BE7504B2A1AFD
:1006A0003B40E1E7FE216A1C11423BD1002D5DD1A8
:1006B000002B7FD0002E7FD10022DB085B025B0A7B
:1006C000D0B274E7FF28D2D08024E404234301246D
:1006D0001B2A07DC1C002025D440AA1A93405A1E6E
:1006E00093411C43331B05000C004DE79F1B7A010F
:1006F00022D4002FA6D100240020002357E79B1905
:1007000001250132590100D440E701213548194043
:100710005B0803400B43A7E7FF28A9D08021C90449
:100720000B43B6E7FF2A00D179E79B195B0859070D
:1007300000D02FE7DB08C1E70C00F71A82E7002B97
:100740002CD1002E93D180230024FF20DB032EE741
:1007500001259B1B18E719002025D140AA1A9340B8
:100760005A1E93410B4305009B1953E7002B00D100
:100770007EE7002E00D17CE78022D203914502D390
:10078000944500D23300DB0853E70C00F31A01351F
:10079000FAE6002EAFD00C0033008DE7002E00D11A
:1007A00067E78022D2039145EDD39445EBD20C004C
:1007B0003300E8E733007FE79B1900225901B9D5E0
:1007C000074A1340DB08012278E79B190132013503
:1007D00059019AD4DAE6031E8DD0DB086EE7C046D5
:1007E000FFFFFFFBFFFFFF7DF0B54F464646D646B5
:1007F0004402C0B547000E1C640A3F0EC50F002F0F
:100800003CD0FF2F42D00023802299469A46E40034
:10081000D20414437F3F73025B0A984673001B0E99
:10082000F60F002B1BD0FF2B13D042468021D200A5
:10083000C9041143884600207F3B2900FF1A4B461C
:100840007140C9B20F2B00D9B5E0744A9B00D35850
:100850009F464346002B3FD1FF3F023303E0434610
:10086000002B2DD1012329004A467140C9B21A43F9
:100870000E2A38D86A48920082589746002C13D125
:1008800004239946033B00279A46C4E7002C05D170
:1008900008239946063BFF279A46BCE70C23994656
:1008A000093BFF279A46B6E7200001F0F7FB7627C1
:1008B000431F9C4000237F4299469A463F1AAAE76D
:1008C000404601F0EBFB4246431F9A4076235B42D1
:1008D0001B1A90460020B0E703234A461A4391466C
:1008E0000320FC33A9E70D00FF200022C005ED071F
:1008F00010432843E0BCBA46B146A846F0BD0D00FF
:1009000000200022F2E75346022BEDD0032B33D018
:10091000A046012B05D100200022E7E7350003287F
:100920007AD03B007F33002B2DDD4246520707D0A3
:100930000F2241460A40042A02D004229446E04491
:100940004246120105D54246364B1A403B009046BE
:100950008033FE2BC8DC42469201520AD8B2C5E76A
:1009600080220025FF20D203C0E78022D203144258
:1009700002D04346134249D08022D203224352027E
:10098000FF20520AB2E70122D31A1B2BC3DC4246D6
:10099000DA4043469E37BB40591E8B411A435307EA
:1009A00004D00F231340042B00D00432530129D567
:1009B000012000229AE7424663015501AB4215D25D
:1009C0001B200022013F01261C0052005B00002C6E
:1009D00001DB9D4201D85B1B324301380028F3D173
:1009E000581E8341134398460D009AE71A200122AE
:1009F0005B1BE8E7023B5A4253415B423500002251
:100A0000D8B273E792010020520A6FE71A435202EC
:100A10003500FF20520A69E74446ADE724A70008E5
:100A200064A70008FFFFFFF770B542004E024C00BC
:100A300045026D0A120EC30F760A240EC90FFF2A53
:100A400010D0FF2C0CD00120A2420AD1B54208D10F
:100A50008B420FD0002A04D12800431E984100E0A9
:100A6000012070BD0120FF2CFBD13543F9D14B4053
:100A70001800F6E70020F4E730B5420044024D02CA
:100A8000C30F4800640A120E6D0A000EC90FFF2A38
:100A900019D0FF280BD0002A1ED100280BD1002D21
:100AA00027D0002C34D100292FD0080030BD002DD4
:100AB00028D1002A01D1002CF5D08B4207D1002B80
:100AC00023D01800F2E7002C1CD1FF2814D0581EA8
:100AD000022318400138E9E70028F8D08B42F6D10C
:100AE0008242F4DCEBDBAC42F1D80020AC42DDD238
:100AF000E5E7002CDAD0EAE7002D03D18B42E6D1FE
:100B00000020D3E702204042D0E701204042CDE759
:100B10008B42E8D0DBE7C04630B5420044024D02CC
:100B2000C30F4800640A120E6D0A000EC90FFF2A97
:100B30001AD0FF280ED0002A1ED100280ED1002D79
:100B40002AD0002C0CD08B421DD0581E02231840F6
:100B5000013810E0002D0DD1002A20D1002C1ED12B
:100B6000002923D0080006E0002C03D1FF28ECD197
:100B7000002D17D0022030BD0028E6D08B42E4D1F2
:100B80008242E2DC04DBAC42DFD80020AC42F2D28D
:100B9000002B0BD01800EEE7002CECD0D5E78B42F1
:100BA000D3D1F5E700208B42E5D0CEE701204042CB
:100BB000E1E7C046F0B54F464646D64643025B0ADB
:100BC0004500C0B599460F1C2D0EC60F002D00D153
:100BD00088E0FF2D00D18DE08022DB00D2041A4393
:100BE0000023914698469A467F3D7C027B00640A2A
:100BF0001B0EFF0F002B68D0FF2B21D08022E400BA
:100C0000D204144342467F3B5B1900215D1C0A2A33
:100C10002EDC7E404246022A23DC013A012A00D91A
:100C2000BDE002296ED001292CD100200022C00590
:100C3000F60710433043E0BCBA46B146A846F0BDC3
:100C40002B00FF33002C65D00322414611433200B4
:100C5000013588467A40FF350A2900DDD8E01600C4
:100C60000321404601228240A620C000024220D03B
:100C70005346022B46D0032B00D1BBE051464C46D5
:100C80000129D2D02B007F33002B70DD620704D006
:100C90000F222240042A00D00434220103D5634BE2
:100CA0001C402B008033FE2B2CDCA201520AD8B250
:100CB000BDE790208000024227D1B938FF381042AA
:100CC0006DD03E00A1468A46D2E7002C41D10123D7
:100CD00042461A4390462B00424601215D1C0A2AD7
:100CE00097DDC5E7002B26D104239846033B00255A
:100CF0009A467AE7002B18D108239846063BFF2531
:100D00009A4672E7FF20002291E780220026FF200A
:100D1000D2038CE741460222013511438846FF3554
:100D20000A29A5DC02217E4074E70C239846093B82
:100D3000FF259A4659E7180001F0B0F94A46431FCB
:100D400076259A4000236D42914698469A462D1A80
:100D50004BE7200001F0A2F94246431F9C402B1AAA
:100D6000763B00215D1C0A2A00DC52E780E7012265
:100D7000D31A1B2B00DD58E79E352200AC40DA4029
:100D8000631E9C412243530704D00F231340042BBE
:100D900000D00432530137D50120002247E7210C4F
:100DA0004A462404240C2700100C1204120C44435D
:100DB0005743484351433A0C09195218944203D9F6
:100DC000802149028C4660443F0411043F0CC9193C
:100DD0008C01671EBC41120C890E12180C43920143
:100DE000144312010ED5012362081C40144349E745
:100DF0003E00A14680224B46D2031A435202FF20F6
:100E0000520A14E71D003DE792010020520A0EE746
:100E10000F29EDD180224B46D2031342EAD014426F
:100E2000E8D13E00FF20224301E7C046FFFFFFF765
:100E3000F8B54746CE464E0243024500720AC40F3B
:100E4000480080B594465F0A2D0E9B09000EC90F1D
:100E5000B609FF2824D0012251402A1A8C420FD013
:100E6000002A00DC6AE1002835D1002E00D1A2E082
:100E7000511E012A00D124E1FF2A21D00A002FE0CF
:100E8000002A00DC67E100285ED0FF2D18D0802109
:100E9000C9040E431B2A00DC76E02A00013332E04D
:100EA0002A00FF3A9146002E42D08C4255D04A4645
:100EB000002A00D19CE0002D00D177E00C00330027
:100EC000DB08002B00D16EE08022D20313435B02CB
:100ED000FF205B0A24E0FF2DF2D08021C9040E43DD
:100EE00001211B2A08DC31002020D140821A9640C3
:100EF0003200501E824111435B1A5A0160D407210F
:100F00002A00194057D00F211940042900D004337A
:100F1000590150D5501CFE2A45D09B01C0B25B0A36
:100F2000C0051843E4072043C0BCB946B046F8BD2D
:100F3000012251408C42BAD14A46002A10D0002DDD
:100F400000D198E00023BBE7002E34D0511E012AC7
:100F50006ED0FF2AB4D00A009CE7002A00D088E0B7
:100F6000FE206A1C104200D092E0002D00D0A4E0C8
:100F7000002B00D1CBE0002E00D0CAE00022DB081D
:100F80005B025B0AD0B2CBE731002020D140821A4D
:100F900096403200501E82410A439B185A01AED53A
:100FA0006A1CFE2D4AD1FF200023B9E7FF22002B47
:100FB0004BD10C003300DB08FF2A00D181E7DFE7CB
:100FC0009F01BF09380001F069F805388740854264
:100FD00021DC3B002021421B0132D3408A1A97407A
:100FE0007A1E974100223B43590700D08BE78FE7D9
:100FF000FE206A1C104212D1002D52D1002B7CD051
:10100000002EBBD09A1B500100D48BE0012400229B
:10101000F31A0C40E8E7564B2A1A3B40E4E79F1BC3
:101020007A0146D4002FCDD100240020002377E799
:101030009B1901250132590100D460E701214D4877
:1010400019405B0803400B43CEE7571E012A5AD0D4
:101050000C00FF2A33D001221B2F07DC2021C91BE3
:101060001A008B40FA40591E8B411A430500B31AEF
:1010700043E7002D23D1FF22002B9BD0511E012AD4
:10108000D6D0FF2A1BD01B292CDD0200731C3AE7A7
:10109000FF2A88D09B195B08590700D033E7DB088B
:1010A0006EE7002B10D1002E43D0012433000C40FA
:1010B00006E70124F71A0C4084E7002B04D1330023
:1010C000FEE601259B1B18E7002E00D1F8E68022E2
:1010D000D203974204D3944502D2012433000C403A
:1010E000DB08F1E61A002025CA40691A8B40591E18
:1010F0008B41134305009B1950E7002E94D0012427
:1011000033000C403AE70C000125F31AF5E63300F2
:1011100034E79B1900225901C1D5154A1340DB0859
:1011200001222DE7002A00D17EE713000022DB0810
:1011300026E780230024FF20DB03F1E6002A00D10C
:1011400056E7471B3A00002D00D130E78022D20439
:101150000C0013437FE7002A00D101E7411B002D5B
:1011600001D10A0088E78022D20413438BE7C046EE
:10117000FFFFFFFBFFFFFF7D41024200C30F490A53
:101180000020120E7E2A03DD9D2A02DD094A9818EE
:101190007047802000040143952A07DC9620821ABC
:1011A000D1404842002BF3D10800F1E7963A914034
:1011B000F7E7C046FFFFFF7F70B5002813D0C317C5
:1011C000C5185D40C40F280000F068FF9E23010091
:1011D0001B1A962B0FDC082834D008398D406D027D
:1011E0006D0AD8B202E0002400200025C005284383
:1011F000E407204370BD992B16DC421F052800D060
:1012000095402A00114802406E0709D00F2635404C
:10121000042D05D00432550102D59F2302405B1AEC
:101220009201550AD8B2E1E70522121A2800D040EF
:10123000020008001B3085402800451EA8410243DB
:101240001500DEE76D0296206D0ACFE7FFFFFFFB7A
:10125000F0B55746DE464E464546E0B51F000B0347
:101260001B0B16009A46CA0F4B000400934687B02A
:101270005B0D00D1D5E0BB4A934200D1F8E0514666
:10128000420FC9000A43802109041143C20091465C
:10129000B54A8A469D180023984602933C037B007A
:1012A000FA0F3000240B5B0D009200D196E0AD4A9E
:1012B000934231D0720FE40022438024240414436B
:1012C000A94AF000944663445B195A1C01924246B5
:1012D00000260A2A42DC5A4600994A409346424672
:1012E000022A32DC013A012A00D949E1022E00D15A
:1012F000CAE0012E3DD100230024002210005A46EE
:101300001B052343D2071343190007B0F0BCBB46AB
:10131000B246A946A046F0BD924B2643EB18002EDC
:1013200000D1BBE00322414611435A46884600994A
:101330004A40802109018C462900614401914146BF
:101340000A2900DD33E293460326424601279740EF
:10135000A6213A00C9000A400F4231D0029E022E57
:1013600000D135E2032E00D1D2E154464846012E89
:10137000C1D0019A7D4B94466344002B00DCC0E051
:10138000420709D00F220240042A05D0021D8242E2
:101390008041404224181000E20106D5744B019AA6
:1013A0001C4080239446DB006344724A93426BDC0A
:1013B0006207C00864025B050243240B5B0D9DE7D6
:1013C000902189000F4263D188223A4200D1D7E0B0
:1013D000009BA2469B4681460296BFE7230033430B
:1013E00000D17FE0002C00D1ADE1200000F056FEDE
:1013F000020003000B3A1D201900821A3000083940
:10140000D0408C400443300088405B4AEB1A94463D
:1014100063445A1C0192424600260A2A00DC5AE71D
:101420009CE753460343994654D05346002B00D1C2
:1014300077E1504600F032FE0B235B429C460200EF
:10144000844411005046083988401D238046604678
:101450001B1A2000D8400300404603439A4623004D
:101460008B4099460023444D9846AD1A029315E7E8
:1014700052460243914626D100221D000223924685
:1014800008329046029309E700240022354B35E7E5
:10149000002380249B462403324B2FE7022241463F
:1014A00011438022120194462A0062448846019228
:1014B0000A2900DD52E75A460020009904004A40FC
:1014C000934602260BE70C221D000323814690461B
:1014D0000293E3E600239A4604339846033B002533
:1014E0000293DBE6424601331A432B0090465A1C16
:1014F000019242460024002001260A2A00DCEAE686
:101500002CE70122D21A382A00DDF4E61F2A00DC7B
:101510002AE11F214942CB1A2100D9400B00202A81
:1015200005D0164A019D94466544AC402043421EB6
:1015300090411843072319000024014003420CD0B6
:101540000F230340042B00D140E1031D8342A4413B
:101550001800644261076402240BC20800230A4396
:10156000CCE6C046FF07000001FCFFFFFF030000C0
:10157000FFFFFFFEFE0700000DFCFFFF3E04000022
:1015800049464A460904090C0D00160C020C0004D9
:10159000000C4543AC4605007543A84615000F00F6
:1015A0007543009202952A00009D6F4365462D0CFD
:1015B000A94647444F44B84505D915008022520238
:1015C0009046454402953D0C039565462D043F0425
:1015D0002D0CAC463D0065440495250C2404240CD8
:1015E000AC4625007543A84665460F006943414453
:1015F00089466743390C49446E43884503D98022A4
:101600005202904646440D0CA846350045440595C7
:10161000039D3F04A8463F0C0904C9198844454668
:10162000039555462E04360C2F0C35004543784360
:1016300081463800A8462D0CAA46009A50437243B2
:101640004A445244914503D980256D02A946484435
:10165000150CA94645462D042D0CA84665467D432C
:10166000120448449044A9463200654662436E43E2
:101670007C43170C3619BF19BC4203D9802464027D
:10168000A446E144029C039EA446059D66448E4206
:101690008941AC4612043C04120CA218624449422F
:1016A00054184644A4464645A44182466442A04696
:1016B000AA4292418C458941E244D0444942524277
:1016C0000A43A045A44182458941644249420C43F2
:1016D00041463F0CD2191219CC0D049970020843EF
:1016E000411E884141464A44F60D520230434902A8
:1016F00014430843D20135D5012243080240134365
:10170000E0071843640834E6009BA2469B468146E6
:101710008024534624031C4324034A462E4B240BA7
:10172000ECE500F0BBFC15239C46844402006346B4
:1017300020321C2B00DC84E6002399462300083865
:1017400083409A468EE600F0A9FC020003001532A1
:1017500020331C2A00DC4EE602003400083A002048
:10176000944052E6019304E61C4B21009C46030082
:10177000019DD3406544A94019430300AB40581E66
:10178000834119430800D4404B0709D00F230B4075
:10179000042B05D00B1D8B428041404224181800B9
:1017A000230200D4D6E6012300240022A6E50F2957
:1017B000AAD1802352461B031A42A9D01C42A7D1AA
:1017C0001C43009B02009B46034B97E50024C1E6A7
:1017D0000024014B220091E5FF0700001E040000D9
:1017E000F0B54E464546DE465746E0B585B000901A
:1017F00001910C034F00CE0F610A009CB046640FAC
:101800000C4300997F0DC80011001A001B039C4671
:101810000091019251004B0D9946019B009DD90FFB
:1018200063466A0F5B0A1343EA0094469346C14A33
:1018300003900293914500D1CDE0012569404D46CA
:101840007D1BAA468E4200D180E0002D00DC35E3EE
:101850004946002900D1DFE0974200D194E1524689
:101860000125382A19DC8022029B120413430293BB
:1018700052461F2A00DDE3E1534620226146029DC5
:10188000D21A9540D9400D43614691400A00511E3D
:101890008A411543029ADA40A41A451BA8428041A6
:1018A0004042241A230200D43DE16402640A002C61
:1018B00000D147E1200000F0F1FB0300083B2021AC
:1018C0002800CA1AD0409C4002009D4022439F42FB
:1018D00000DD77E1D81B0130091A2C008D40C4408F
:1018E0006B1E9D411300C2408B402543002714000E
:1018F0001D436B0709D00F232B40042B05D02B1D54
:10190000AB42AD416D4264191D00230200D440E199
:10191000884A0137974200D101E1012643468649B2
:10192000ED0821404A072A437C054D022D0B640D2A
:101930001E4024052C43F60734431000210005B057
:10194000F0BCBB46B246A946A046F0BD002D00DC67
:10195000D0E24946002900D0D4E06146029B1943F9
:1019600000D12BE1691E012D00D1D9E1954200D1B2
:101970000AE10125382917DC8A4653461F2B00DD72
:10198000E7E12022D21A029B614693401D00534694
:10199000D940634693401A000D43511E8A41534675
:1019A0001543029ADA40A4182D188542804140421E
:1019B0002418230200D4B6E05E4B01379F4200D1C9
:1019C000ADE001215C4B6A081C4029400A43E50751
:1019D000154364088DE7594A029B92466246BA4411
:1019E0001A432CD08E422ED05246002A60D0002FAF
:1019F00000D1DBE063460E00029CD8086207024378
:101A0000E4081300234300D154E280252D0325432D
:101A10002D03484C2D0B8CE76146029B194300D1E6
:101A2000CCE029000139012D00D188E1954200D197
:101A3000AAE00125382900DD2FE78A4618E70122B0
:101A400051408E42D0D15346002B00D1BEE0002F32
:101A500000D038E1CA462200024300D1E2E15346F9
:101A6000591E012B00D10DE2324A924500D1D2E13C
:101A70000127382913DC1F2900DDEEE12022029B1B
:101A8000521A250007009A46CC4090409540CF401E
:101A9000A244421E904153462F43074302933D0008
:101AA000654465459241029B52424F46D41880E7F7
:101AB000234A7D1C154200D0AAE062462500029B05
:101AC00005431A43002F00D0F5E0002D00D16BE153
:101AD000002A00D152E16346C51A029BE21AA842CD
:101AE0009B415B42D31A1A0200D4D5E163461D1A0A
:101AF000AC4592410126029B52421C1B8846A41A07
:101B00000E40F6E697423FD052460125382A00DDC6
:101B10004AE78022029B1204134302932DE73C0004
:101B20000025002205E707232B40002B00D0E2E62A
:101B30006BE0C046FF070000FFFF7FFF01F8FFFFDB
:101B4000FE070000280000F0A9FA030018331F2B3D
:101B500000DCB4E62A00083882409F4200DDB9E08C
:101B6000DB1B581C1F2800DCA0E115001F3BDD40DB
:101B7000202805D040231B1A9A40531E9A41154332
:101B8000072300272B40D0E7C00862070243E40880
:101B900037E7EA0863071A43D34BE4089F4200D1B2
:101BA0002FE72403250B7C05640DC2E6CA462200FC
:101BB000024358D163460E00029C0393039B574691
:101BC000DA08E7E7C94CFF1A144092E6C84D7A1CC0
:101BD0002A4200D084E022000243002F00D0EFE030
:101BE000002A00D1E5E0624602990A4300D1C5E02F
:101BF0006346C5188C46854280416444404224189F
:101C0000230202D5B94B01371C40BA460395D5E7EC
:101C10006246851AA842924152429146029BE31ABB
:101C20001A004B46D21A130091461A026CD44A4647
:101C30004C462A4300D03AE600260024002578E6E8
:101C4000029953460D00203AD540202B06D0402261
:101C5000D21A0B00934062461A4393465B465A1EC3
:101C600093411D4319E653465A1E012B00D1C6E08D
:101C70009D4EB24500D1BDE688460E000125382AAA
:101C800010DC1F2A7FDC20212500891A07008840EC
:101C90008D40D740D440411E8841029B3D431B1BD1
:101CA000054302936246551BAC459241029B52424A
:101CB0004F469C1AF6E5002D00D0B7E0002A00D16F
:101CC000F0E001260E4063460298D90842070A4315
:101CD000C40896E6854CFF1A14406207E40860E7E2
:101CE00081498A4200D1C9E06346C11881428041DE
:101CF000029B4042E3181B18DD075C0807234908D4
:101D00000D4317002B4010E763461D1AAC45924166
:101D10000126029B52421C1B8846A41A0E40C6E5AF
:101D20006346C518029B854280419C4640426444FC
:101D300024180127230200D4F5E6022741E6634672
:101D4000C51AA8428041029B4042E41A0127241A86
:101D5000A8E5029D52462B00203AD3401900534675
:101D6000202B06D04022D21A2B00934062461A4301
:101D700093465D466B1E9D410D4315E66207C00804
:101D80000243E4080DE7110027002039CF40202A44
:101D900005D040218A1A9440250005430395039DF0
:101DA0006A1E95413D437DE7002A00D144E70126A4
:101DB0000E406346D908029B5A070A43DC08F0E646
:101DC000002A28D06246029FC0083A4300D1DCE6D0
:101DD000620710438022E4081203144209D0FD0870
:101DE000154206D1634601262C00D8087B0718430C
:101DF0000E40420FC000C0085207024301E663468E
:101E00001D1AAC459241029B52421C1B0E00884693
:101E10000127A41A46E56346D908029B5A070A43DC
:101E2000DC08EEE56346029C0393C7E6C008002A7F
:101E300000D1AAE6620710438022E408120314428C
:101E4000D7D0029FFD081542D3D163460126D8089A
:101E50007B072C0018430E40CBE70A002700203AEE
:101E6000D740202905D04022521A9440250005432E
:101E70000395039D6A1E95412F4310E6140000252B
:101E8000002256E5029B60449946604592414C44CD
:101E900052420500A4184CE71A001C002A4300D047
:101EA000B3E6C9E6802400262403AEE52021002500
:101EB000091A17E5002200250B4C3AE5002D00D148
:101EC000F6E54B46DA1B9246002F00D16FE6382A22
:101ED00005DC80263604344388460E00D1E6884669
:101EE0000E000125DEE6C046FF070000FFFF7FFF72
:101EF000FE070000002D00D168E64B46D91B002FDD
:101F000001D18A46A7E50127382900DDC7E58022EF
:101F100012041443AFE5C0460B00020070B5164D25
:101F20000C0382B04900002000920193240B490D5C
:101F3000DE0FA94204DD1148814203DD104BF01889
:101F400002B070BD8020400320430E4C641A1F2C49
:101F500008DD0D4B5B1AD84003005842002EEFD12C
:101F60001800EDE7094B009A9C46030061448B4042
:101F7000E2401343F1E7C046FE0300001D040000E9
:101F8000FFFFFF7F3304000013040000EDFBFFFFA1
:101F900070B542024300C40FFE201B0E591C550AA7
:101FA00008420CD0E02189008C466D07120B634477
:101FB0001B051343E40723432800190070BD002BC1
:101FC00014D1002D1BD0280000F068F80A281CDC72
:101FD0000B232A001B1ADA40030015339D400E4BD9
:101FE00012031B1A5B05120B5B0DE1E7002D09D0F4
:101FF000130B802212031A436D07084BD8E7002306
:102000000022D5E70022054BD2E703002A000B3B54
:102010009A400025E3E7C04689030000FF0700005F
:102020008446100062468C461900634600E0C046B4
:102030001FB500F009F9002801D40021C8421FBDD6
:1020400010B500F049F84042013010BD10B500F065
:10205000FBF8002801DB002010BD012010BDC046A8
:1020600010B500F0F1F8002801DD002010BD0120BE
:1020700010BDC04610B500F073F8002801DC002048
:1020800010BD012010BDC04610B500F069F8002851
:1020900001DA002010BD012010BDC0461C21012323
:1020A0001B04984201D3000C10391B0A984201D33B
:1020B000000A08391B09984201D30009043902A219
:1020C000105C40187047C046040302020101010180
:1020D0000000000000000000F0B55746DE464E4606
:1020E0004546E0B50D000400E80F83460903D80F0C
:1020F000090B824619488C461F0369005E00490D92
:102100003F0B760D814218D086420FD00120B1429C
:102110000DD1BC450BD1944209D1D3451CD0002927
:1021200005D160462043431E984100E00120F0BCE9
:10213000BB46B246A946A046F0BD01208E42F6D16C
:10214000614639430F0017432743F0D15B4652469F
:10215000981A431E9841EAE70020E8E7FF070000CD
:10216000F0B557464E464546DE46E0B50D000F0336
:10217000390B83B00400804601915800E90F314FBC
:10218000400D8C466E00190382469146760D090B70
:10219000D80FBE421FD0BA450FD0002E2FD15546C2
:1021A000019E3443002D27D10A433AD0002C45D15B
:1021B00000281AD10120404217E011433BD1002EE4
:1021C00002D1019F2743F3D0844509D16346002BF8
:1021D000F0D0604609E0019F27432CD1B24524D0BE
:1021E00063460220013B1840013803B0F0BCBB46F7
:1021F000B246A946A046F0BD002CD9D0E4E754462B
:10220000002CEDD08445EBD15645E9DCDEDB019BAB
:102210008B42E5D8DAD1C845E2D80020C845E4D2DF
:10222000D4E70020002CE0D0DAE7114303D1844545
:10223000D6D10020D9E702204042D6E78445E6D037
:10224000CEE7C046FF070000F0B557464E4645466C
:10225000DE46E0B50D000F0304008046E80F390BA1
:10226000844683B05800304F400D01911E03690031
:1022700082469146490D360BD80FB94220D0BA4557
:102280000FD000292BD101990C435146002937D199
:10229000324338D0002C44D1002819D101204042CB
:1022A00016E0164313D1002902D1019F2743F3D032
:1022B000844520D063460220013B1840013807E0E6
:1022C000019F274303D18A45F4D116431FD0022032
:1022D00003B0F0BCBB46B246A946A046F0BD54468A
:1022E000002CE7D08445E5D15145E3DC03DB019BBD
:1022F000B342DFD80FD06346002BCFD06046E7E76C
:10230000002CC9D0D4E70020002CE1D0D2E78445CE
:10231000D0D10020DCE7C845CCD80020C845D7D2B2
:10232000E9E78445E3D0C5E7FF07000010B50400E6
:102330000F4B1978FA208000FDF7E6FE01000D4BE7
:102340001868FDF7E1FE00F0B8F800280DD1032C65
:1023500001D901200AE0013000222100404200F0B2
:1023600089F8054B1C60002000E0012010BDC0462C
:10237000000000200C0000200400002010B5064AD8
:10238000136810210B4313600020FFF7CFFF07F005
:1023900073FB002010BDC04600200240034A1168B4
:1023A000034B1B785B1813607047C0462C0000205D
:1023B00000000020014B18687047C0462C00002028
:1023C00070B5002811DB8308134DC0339B005C59A6
:1023D00003221040C000FC3216008640B44389013D
:1023E0000A40824022435A5170BD0F230340083BEC
:1023F0009B0806339B00094A944663445C680322A9
:102400001040C000FC3215008540AC4389010A40F1
:10241000824022435A60E7E700E100E000ED00E07F
:10242000BFF34F8F034B044ADA60BFF34F8FC046B0
:10243000FDE7C04600ED00E00400FA050138802306
:102440005B0498420FD2094A50600948036A1B0294
:102450001B0AC02109060B43036200239360073364
:102460001360002070470120FCE7C04610E000E048
:1024700000ED00E010B5FFF7A3FF10BD002805DB5D
:102480001F22024001239340014A13607047C04657
:1024900000E100E000280ADB1F22024001239340F4
:1024A000034980228B50BFF34F8FBFF36F8F70476C
:1024B00000E100E010B5FFF7B3FF10B5FFF7BEFF76
:1024C00010BD70B5066CC56B0124B4406C60046827
:1024D00063604368102B04D0036899600368DA6076
:1024E00070BD03689A600368D960F9E710B504000D
:1024F0000068054B9C4660441421FDF705FE8000F2
:102500002064024BE36310BDF8FFFDBF00000240F2
:1025100070B5041E20D021250223435501680A68A6
:102520000E4B1A40436880680343E0680343206908
:10253000034360690343A0690343E0690343134312
:102540000B602000FFF7D2FF0023A3630122625536
:102550001F32A354002070BD0120FCE70FC0FFFF15
:1025600070B504002020205C012832D020200125F5
:1025700025540130205C012804D020230022E2549D
:10258000022070BD2030013525540020A06325684D
:1025900028680126B04328602000FFF792FFE36A15
:1025A000002B0BD0226813680E210B4313602268A6
:1025B000136801210B4313600020E2E722681368CF
:1025C0000A210B4313602268136806398B4313609A
:1025D000EDE70220D5E710B52123C35C022B06D01E
:1025E000042383631C330022C254012010BD0268FF
:1025F00013680E218B43136001680A6801239A4314
:102600000A60016CC26B1C008C4054602122835410
:102610001F330022C2540020E8E710B52123C35C19
:10262000022B03D004238363012010BD02681368CA
:102630000E218B43136001680A6801239A430A60E4
:10264000016CC26B1C008C405460212283541F33E8
:102650000022C254436B002B02D098470020E4E7CD
:102660000020E2E770B5C36B1A6804682568016C46
:1026700004238B401A4212D06B0710D523689B06A7
:1026800003D42368042293432360016CC26B0423A8
:102690008B405360C36A002B00D0984770BD022363
:1026A0008B401A4218D0AB0716D523689B0606D478
:1026B00023680A22934323602123093AC254016C00
:1026C000C26B02238B40536020230022C254836AD2
:1026D000002BE3D09847E1E708238B401A42DDD076
:1026E0002D07DBD523680E2293432360016CC26B58
:1026F00001231C008C4054608363212283541F33C8
:102700000022C254036B002BC8D09847C6E70000D4
:10271000F0B583B0002356E086685F000324BC4018
:10272000A643CC68BC4034438460446894434E68FC
:102730003609012232409A402243426053E0DE08CB
:102740000836B600375805321A4092000F249440DC
:10275000A7430C69944022003A43325056E00326C6
:1027600000E00026A64034003C4302329200444E72
:102770009451444A1768EA433E00AE434C68E40370
:1027800001D53E002E433F4C266067683E00164050
:102790004C68A40301D53E002E433A4C6660A768FE
:1027A0003E0016404C68E40201D53E002E43354CF5
:1027B000A660E66832404C68A40201D52A00324384
:1027C000304CE26001330C682200DA4056D001221E
:1027D0009A40250015401442F4D04E68032434403A
:1027E000013C012C98D94C6803222240032A08D0CE
:1027F000C4685E000322B24094438A68B240224318
:10280000C2604C6803222240022A98D004685E000D
:1028100003221700B740BC434F683A40B2402243FE
:1028200002604C68C02292021442CBD0164CA669BA
:1028300001221643A661A46922400192019A9A08D6
:10284000941CA4000E4EA75903241C40A4000F267C
:10285000A640B7439026F605B04282D00B4EB04258
:1028600008D00B4EB04207D00A4EB04200D176E7F6
:10287000052677E7012675E7022673E703B0F0BD6A
:102880000000014000040140001002400004004824
:1028900000080048000C0048F0B5CE46474680B519
:1028A0008946002323E00321884601E00021884671
:1028B0004146A140A94246D004685E000325B540C8
:1028C000AC430460DC080834A400275807261E40E7
:1028D000B6000F21B1408F432750C468AC43C46099
:1028E0004468944344608268AA43826001334A4644
:1028F000DA403DD001229A404C461440A446494655
:102900001142F3D09F08BC1CA4001B4D655903263F
:102910001E40B4000F26A64035409021C9058842CC
:10292000C4D01649884208D01549884208D01549B4
:102930008842B8D005218846BAE701218846B7E722
:1029400002218846B4E7104C256861468D43256016
:1029500065688D436560A5688D43A560E5688D4316
:10296000E56005490237BC006558B5436550A3E7EB
:10297000C0BCB946B046F0BD0000014000040048AC
:1029800000080048000C00480004014003690B42A5
:1029900001D0012070470020FCE7000010B5054B76
:1029A0005B69184200D110BD024B586104F0E4FC91
:1029B000F9E7C0460004014070B582B0041E00D1A2
:1029C0002EE20368DB0726D5AE4B5A680C23134072
:1029D000042B18D0AB4B5A680C231340082B0ED095
:1029E0006368012B3CD0002B51D1A64B1A68A64935
:1029F0000A401A601A68A5490A401A6036E0A14BDD
:102A00005B68DB03ECD59F4B1B689B0303D56368B6
:102A1000002B00D107E223689B0772D5994B5B68B6
:102A20000C221A425DD0974B5A680C231340082B96
:102A300053D0E368002B00D185E0924A136801214E
:102A40000B431360FFF7B6FC05008E4B1B689B071A
:102A500070D4FFF7AFFC401B0228F6D90320E0E159
:102A6000884A116880235B020B4313606368002B64
:102A700025D0FFF79FFC0500824B1B689B03CAD43F
:102A8000FFF798FC401B6428F6D90320C9E1052B09
:102A900009D07C4B1A687C490A401A601A687B4945
:102AA0000A401A60E2E7774B19688022D2020A4393
:102AB0001A601968802252020A431A60D6E7FFF7AB
:102AC00079FC05006F4B1B689B03A4D5FFF772FCD4
:102AD000401B6428F6D90320A3E16A4B5B68DB0343
:102AE000A7D4684B1B689B0703D5E368012B00D074
:102AF0009BE164490B68F82293432269D200134397
:102B00000B6023681B0744D5E369002B2ED05D4A78
:102B1000536A01210B435362FFF74CFC0500594BEC
:102B20005B6A9B0735D4FFF745FC401B0228F6D9AA
:102B3000032076E153490B68F82293432269D200BF
:102B400013430B60DDE74F4A136801218B43136089
:102B5000FFF730FC05004B4B1B689B07D1D5FFF7F7
:102B600029FC401B0228F6D903205AE1454A536A42
:102B700001218B435362FFF71DFC0500414B5B6A4B
:102B80009B0706D5FFF716FC401B0228F6D9032049
:102B900047E123685B0700D480E03A4BDB69DB0048
:102BA0001DD4384BDA69802149050A43DA61DB69B3
:102BB0000B400193019B0125354B1B68DB0510D5AC
:102BC000A368012B21D0002B36D12E4B1A6A01218C
:102BD0008A431A621A6A03318A431A621AE000258C
:102BE000EAE72B4A116880235B000B431360FFF771
:102BF000E1FB0600264B1B68DB05E1D4FFF7DAFB9F
:102C0000801B6428F6D903200BE11E4A136A0121B8
:102C10000B431362A368002B24D0FFF7CBFB060005
:102C2000184B1B6A9B0737D4FFF7C4FB801B194B5B
:102C30009842F5D90320F4E0052B09D0114B1A6A0C
:102C400001218A431A621A6A03318A431A62E1E750
:102C50000C4B1A6A04210A431A621A6A03390A439E
:102C60001A62D7E7FFF7A6FB0600064B1B6A9B0715
:102C700012D5FFF79FFB801B064B9842F5D9032026
:102C8000CFE0C04600100240FFFFFEFFFFFFFBFF4A
:102C90000070004088130000012D33D02368DB064C
:102CA00010D56369012B33D0053351D1654A536B7D
:102CB00004218B435363536BF4318B43A169C900E7
:102CC0000B435363236A002B00D1B0E05D4A516887
:102CD0000C220A40082A00D18AE0022B4FD0594A20
:102CE000136859490B401360FFF764FB0400554B10
:102CF0001B689B017AD5FFF75DFB001B0228F6D904
:102D000003208EE04F4AD36950490B40D361C5E799
:102D10004C4B5A6B04210A435A635A6B03390A43DA
:102D20005A63FFF747FB0500464B5B6B9B0706D4D6
:102D3000FFF740FB401B0228F6D9032071E0414910
:102D40004B6BF8229343A269D20013434B63B9E75C
:102D50003C4B5A6B04210A435A635A6B03398A432A
:102D60005A63FFF727FB0500364B5B6B9B07A9D522
:102D7000FFF720FB401B0228F6D9032051E0314A1F
:102D8000136831490B401360FFF714FB05002D4B0E
:102D90001B689B0106D5FFF70DFB401B0228F6D9E7
:102DA00003203EE0274BDA6A0F218A43E16A0A4397
:102DB000DA625A6826490A40A16A606A01430A43F6
:102DC0005A601968802252040A431A60FFF7F2FA27
:102DD00004001C4B1B689B0106D4FFF7EBFA001B99
:102DE0000228F6D903201CE000201AE0002018E099
:102DF000012B1ED0134B5A68D86A80235B02134004
:102E0000616A8B4217D10F230340E16A8B4214D1D0
:102E1000F0239B031A40A36A9A4210D1002000E0DD
:102E2000012002B070BD0120FBE70120F9E700207E
:102E3000F7E70120F5E70120F3E70120F1E70120A2
:102E4000EFE7C04600100240FFFFFFFEFFFFFFEF6D
:102E5000FFFFC2FF30B589B004AA164B31CB31C297
:102E60001B6813606A46144B31CB31C21B68136078
:102E7000124B5A680C231340082B02D0104809B09B
:102E800030BD910C0733194004A8445C0B49C96A52
:102E90000B406946C95CD20304D50948FDF734F9F3
:102EA0006043ECE76201121B93019B1ADB001B19C4
:102EB0001802E4E7A0A70008B4A700080010024029
:102EC00000127A0070B504000D00002800D17EE0E9
:102ED000434B1A68012313408B420AD240490B68C6
:102EE000012293432B430B600B681A40AA4200D087
:102EF0006FE023689A070ED55B0705D5394A5168FC
:102F0000E023DB000B435360364A5368F0218B43C8
:102F1000A1680B4353602368DB072DD56368012B41
:102F20001ED0022B22D02F4A1268920753D52D496A
:102F30004A680320824313434B60FFF73BFA0600C5
:102F4000284B5B680C221A4063689B009A4213D09E
:102F5000FFF730FA801B244B9842F1D9032035E06B
:102F6000204A12689203E2D401202FE01D4A126821
:102F70009201DCD4012029E0194B1A680123134087
:102F8000AB4209D916490B68012293432B430B60CE
:102F90000B681A40AA4220D123685B0706D5114A64
:102FA000536812490B40E1680B435360FFF752FF2F
:102FB0000C4B5A6812090F2313400D4AD35CD840BA
:102FC0000C4B18600020FFF7B1F9002070BD012004
:102FD000FCE70120FAE70120F8E70120F6E7C04608
:102FE000002002400010024088130000FFF8FFFF9D
:102FF000F8A900080C000020014B18687047C04673
:103000000C00002010B5FFF7F7FF044B5A68120AB6
:1030100007231340024AD35CD84010BD0010024081
:10302000F0A9000830B5036A012293430362056AE0
:10303000426883697324A3430C681C4302239D43A5
:103040008B682B43154DA84208D0154DA84205D0DA
:10305000144DA84202D0144DA84206D10825AB4316
:103060001D00CB682B430425AB430C4DA84208D070
:103070000B4DA84205D00B4DA84202D00A4DA842E4
:1030800005D10A4D2A404D6915438A692A43426099
:1030900084614A684263036230BDC046002C01402F
:1030A000004001400044014000480140FFFCFFFF98
:1030B00030B5036A184A13400362046A4268C36960
:1030C0007325AB430D681D43144B1C408B681B02DA
:1030D0002343134CA04209D0124CA0420DD0124CF5
:1030E000A0420AD0114CA0420FD106E0104C1C4067
:1030F000CB681B0223430F4C23400F4C22404C69EA
:10310000240114438A69120122434260C5614A685E
:10311000C263036230BDC046FFFEFFFFFFFDFFFF3D
:10312000002C0140004001400044014000480140A3
:10313000FFF7FFFFFFFBFFFFFFCFFFFF30B5036A85
:10314000134A13400362046A4368C269114D2A405E
:103150000D682D021543104A14408A681203224359
:103160000E4CA04208D00E4CA04205D00D4CA042FF
:1031700002D00D4CA04204D10C4C1C404B699B0169
:1031800023434360C5614B680364026230BDC0469F
:10319000FFEFFFFFFF8CFFFFFFDFFFFF002C014071
:1031A000004001400044014000480140FFBFFFFFD4
:1031B0003D23C35C012B22D13C330222C25402685E
:1031C000D36801210B43D36003680F4A93420BD0AD
:1031D0000E4A934208D00E4A934205D01A68012144
:1031E0000A431A6000200BE0996807220A40062A69
:1031F00007D01A6801210A431A60002000E001206C
:1032000070470020FCE7C046002C0140000400404D
:10321000004001407047704770477047704710B5D5
:103220000400026813699B070FD5D3689B070CD570
:1032300003235B4213610433037703689B699B0795
:1032400063D0FFF7E9FF00232377226813695B0748
:1032500012D5D3685B070FD505235B421361073393
:10326000237723689A69C0239B001A4253D0200019
:10327000FFF7D2FF00232377226813691B0710D5BD
:10328000D3681B070DD509235B4213610D332377E8
:103290002368DB699B0745D02000FFF7BDFF0023B3
:1032A000237722681369DB0612D5D368DB060FD5B6
:1032B00011235B421361193323772368DA69C02332
:1032C0009B001A4235D02000FFF7A6FF002323778A
:1032D00022681369DB0702D5D368DB0730D4226884
:1032E00013691B0602D5D3681B0630D42268136904
:1032F0005B0602D5D3685B0630D4226813699B064F
:1033000002D5D3689B0630D410BDFFF784FF2000A0
:10331000FFF783FF97E72000FFF77DFF2000FFF70F
:103320007CFFA7E72000FFF776FF2000FFF775FF7F
:10333000B5E72000FFF76FFF2000FFF76EFFC5E73E
:1033400002235B4213612000FFF764FFC7E781237C
:103350005B421361200000F074FBC7E741235B422E
:1033600013612000FFF75AFFC7E721235B42136177
:10337000200000F065FBC7E703681D4A904202D0B9
:103380001C4A904203D1702293434A681343184A5F
:1033900090420ED0174A90420BD0174A904208D064
:1033A000164A904205D0164A904202D0154A9042E1
:1033B00003D1154A1A40CB681343802293434A69CC
:1033C000134303608B68C3620B688362084B9842A7
:1033D00008D00A4B984205D0094B984202D0094BBD
:1033E000984201D10B690363012343617047C046D2
:1033F000002C01400004004000200040004001403B
:103400000044014000480140FFFCFFFF70B5041E6E
:1034100026D03D23C35C002B1CD03D2502236355E1
:10342000210001C9FFF7A8FF01234622A354083A4F
:10343000A3540132A3540132A3540132A3540132E4
:10344000A3540132A3540132A3540132A35463554F
:10345000002070BD3C330022C25406F07BFBDCE749
:103460000120F6E770B5041E26D03D23C35C002B77
:103470001CD03D2502236355210001C9FFF77CFFC5
:1034800001234622A354083AA3540132A354013223
:10349000A3540132A3540132A3540132A354013284
:1034A000A3540132A3546355002070BD3C33002265
:1034B000C25406F0F9FADCE70120F6E770B5036ABA
:1034C000102293430362026A44688369164D2B40BD
:1034D0000D682D021D4320239A438B681B01134363
:1034E000124A904209D0124A90420ED0114A90429C
:1034F0000BD0114A904210D107E0802293431E0066
:10350000CB681B013343403A93430C4A14404A6949
:10351000920022438C69A4001443446085614A6888
:103520008263036270BDC046FF8CFFFF002C014028
:10353000004001400044014000480140FFF3FFFF0C
:1035400070B504000D003C23C35C012B00D16AE080
:103550003C230121C154082A50D01CD8002A38D05D
:10356000042A16D100682900FFF7A8FF2268916994
:1035700080231B010B439361226893692B490B4005
:10358000936121688B692A69120213438B610020C1
:103590001BE0080019E00C2A16D100682900FFF78B
:1035A000CDFD2268D16980231B010B43D3612268C2
:1035B000D3691E490B40D3612168CB692A69120285
:1035C0001343CB61002000E001203C230022E254A1
:1035D00070BD00682900FFF725FD22689369082166
:1035E0000B4393612268936904398B43936122688A
:1035F000936929690B4393610020E6E7006829007D
:10360000FFF756FD2268D36908210B43D361226876
:10361000D36904398B43D3612268D36929690B4389
:10362000D3610020D1E70220D2E7C046FFFBFFFFB5
:1036300010B51F23194001248C40036AA343036281
:10364000036A8A401343036210BD000010B50400F2
:10365000002932D13E23C35C013B5A1E9341DBB2A9
:10366000002B5ED1002941D13E330222E254206872
:103670000122FFF7DDFF23682C4A934208D02C4A31
:10368000934205D02B4A934202D02B4A934204D155
:10369000596C802212020A435A642368234A9342D7
:1036A00034D0264A934231D0214A93422ED01A6810
:1036B00001210A431A60002034E0042908D00829B7
:1036C0000DD04123C35C013B5A1E9341DBB2C7E7D7
:1036D0003F23C35C013B5A1E9341DBB2C0E740234A
:1036E000C35C013B5A1E9341DBB2B9E7042905D004
:1036F000082907D041230222E254B8E73F230222DF
:10370000E254B4E740230222E254B0E7996807226A
:103710000A40062A07D01A6801210A431A600020CD
:1037200000E0012010BD0020FCE7C046002C014055
:1037300000400140004401400048014000040040B6
:1037400010B50400002938D13E23C35C013B5A1E4A
:103750009341DBB2002B00D080E0002946D13E33FC
:103760000222E2542268D36802200343D360206817
:103770000122FFF75DFF23683A4A934208D03A4A94
:10378000934205D0394A934202D0394A934204D138
:10379000596C802212020A435A642368314A9342C8
:1037A00051D0344A93424ED02F4A93424BD01A689C
:1037B00001210A431A60002051E0042908D0082999
:1037C0000DD04123C35C013B5A1E9341DBB2C1E7DC
:1037D0003F23C35C013B5A1E9341DBB2BAE740234F
:1037E000C35C013B5A1E9341DBB2B3E7042911D0FD
:1037F000082913D041230222E254082911D018D8F5
:103800000029AFD0042912D12268D36804200343D1
:10381000D360ACE73F230222E254F5E740230222C3
:10382000E2542268D36808200343D3609FE7012055
:1038300015E00C2905D12268D36810200343D3601A
:1038400095E701200BE0996807220A40062A07D075
:103850001A6801210A431A60002000E0012010BD0F
:103860000020FCE7002C01400040014000440140E2
:10387000004801400004004070B505000C00082914
:1038800041D00BD8002913D0042905D10268D36890
:1038900004218B43D36010E0012033E00C2905D1D3
:1038A0000268D36810218B43D36006E0012029E031
:1038B0000268D36802218B43D3602868002221006C
:1038C000FFF7B6FE2B68234A934222D0224A934246
:1038D0001FD0224A93421CD0214A934219D02B6810
:1038E000196A204A114207D1196A1F4A114203D1AD
:1038F0001A6801218A431A60002C17D13E23012245
:10390000EA54002070BD0268D36808218B43D3605D
:10391000D3E7196A134A1142E1D1196A124A1142D6
:10392000DDD15A6C11490A405A64D8E7042C06D0FC
:10393000082C09D041230122EA540020E2E73F236A
:103940000122EA540020DDE740230122EA5400204E
:10395000D8E7C046002C014000400140004401402F
:10396000004801401111000044040000FF7FFFFFE8
:1039700030B53C23C35C012B24D03C230122C2542C
:1039800001330132C25403685C689D686E3294430F
:103990000A6822435A6003680B4A934205D00B4AD7
:1039A000934202D00A4A934204D1802295434A6846
:1039B0002A439A603D230122C254013B0022C25493
:1039C000002030BD0220FCE7002C01400004004034
:1039D0000040014010B53C23C35C012B21D03C22A8
:1039E00001238354CB68104C23408C6823430F4C35
:1039F00023404C6823430E4C23400C6823430D4C5A
:103A000023400C6923430C4C23404C6923430B4C4B
:103A10002340C9690B4301684B6400238354002091
:103A200010BD0220FCE7C046FFFCFFFFFFFBFFFFCD
:103A3000FFF7FFFFFFEFFFFFFFDFFFFFFFBFFFFF0E
:103A40007047704710B5EFF31081012383F310889E
:103A500002681368C024A343136081F310882023F5
:103A6000836710BD10B5EFF3108C012282F310882C
:103A700001680B68124C23400B608CF31088EFF345
:103A8000108C82F3108801688B6893438B608CF3F1
:103A90001088036E012B05D02023C3670023036623
:103AA000436610BDEFF3108183F31088026813683A
:103AB0003234FF34A343136081F31088ECE7C0462F
:103AC000DFFEFFFF10B504001300826F202A54D1DF
:103AD000002954D0002B54D080688022520190429B
:103AE00030D07422A25C012A4DD074220120A0544F
:103AF000E164243AA3520232A3522E320021A15093
:103B00005F3AA267E26E002A23D020499162E26EFA
:103B10001F49D162E26E1F491163E26E00215163B9
:103B2000E16C22682832E06EFEF71AFD002810D002
:103B300080231022E2500C3B0022E254543BA36746
:103B400001201BE02269002ACBD1CA07C9D5012078
:103B500014E0236840221A6274230022E254EFF337
:103B60001081733B83F3108822689368802003439D
:103B7000936081F31088002000E0022010BD012036
:103B8000FCE70120FAE70220F8E7C046993B00086D
:103B90000B3C0008193C000810B5436A8269202AD2
:103BA0001AD0522200219952EFF3108C013181F387
:103BB0001088186882688024A24382608CF3108881
:103BC000EFF3108081F310881A6813683F310B43BC
:103BD000136080F3108810BD180006F083FCFAE72C
:103BE00010B5EFF31081012383F310880268136886
:103BF0004024A343136081F31088202383670023AC
:103C0000836606F06FFC10BD704710B5406AFFF781
:103C1000FBFF10BD7047704770B5446AA26FE56F37
:103C200023689B681B0601D5212A0ED023689B6858
:103C30005B0601D5222D0FD08022A35810210B4303
:103C4000A3502000FFF7E7FF70BD52230022E2528D
:103C50002000FFF7F7FEE9E75A230022E252200096
:103C6000FFF700FFE8E710B5406A00235A228352AD
:103C7000083A8352FFF7CFFF10BD704770B50400BC
:103C80000268D36911689068A24D2B4209D1980649
:103C90000FD588060DD5636E002B18D020009847ED
:103CA00015E001252E000640054211D19A48014237
:103CB0000ED1206E012800D18DE01A0602D50A0629
:103CC00000D51CE15B0602D5490600D51EE170BD9A
:103CD000D80707D5C80505D50125156280202258CB
:103CE0002A4322509A0709D5002E07D022680220C5
:103CF00010627E30225804252A4322505A0709D5E3
:103D0000002E07D02268042010627C302258022541
:103D10002A4322501A070AD58A0601D4002E06D05B
:103D2000226808251562802022582A4322501A054D
:103D30000AD54A0108D5226880200001106280203F
:103D4000225820252A4322508022A258002ABED081
:103D50009B0606D5890604D5636E002B01D0200092
:103D600098478023E25823689B685B0602D4282387
:103D7000134229D02000FFF775FE23689B685B067D
:103D80001ED5EFF31081012383F310882268936816
:103D900040208343936081F31088236F002B0BD066
:103DA0005E4A5A63206FFEF738FC002800D18EE788
:103DB000206F436B98478AE72000FFF72CFF86E7C8
:103DC0002000FFF728FF82E72000FFF724FF802371
:103DD0000022E2507BE7D80600D46EE7C80600D484
:103DE0006BE71023136223689B685B064FD5226F35
:103DF00013685B689BB2002B00D168E75821615AB9
:103E0000994200D863E75A2163529369202B09D164
:103E10005823E15A0233E35AC91A89B22000FFF746
:103E20002CFF54E7EFF31080012383F310882168FF
:103E30000A683B4D2A400A6080F31088EFF3108037
:103E400083F3108821688A689A438A6080F3108817
:103E5000EFF3108083F3108821688A684235FF35BC
:103E6000AA438A6080F310882022E267002222663B
:103E7000EFF3108183F310882268136810208343C6
:103E8000136081F31088206FFEF7A5FBC0E758236D
:103E9000E35A5A22A15A591A89B2A35A9BB2002B4B
:103EA00000D114E7002900D111E7EFF310850123B9
:103EB00083F31088206802681A4E3240026085F34E
:103EC0001088EFF3108583F31088206882689A4386
:103ED000826085F310882022E267002222666266F3
:103EE000EFF3108083F31088226813681025AB432A
:103EF000136080F310882000FFF7BFFEE7E6A36E93
:103F0000002B00D1E3E620009847E0E62000FFF711
:103F100067FEDCE60F08000020010004673C000893
:103F2000FFFEFFFFDFFEFFFF10B5406A036E012BAF
:103F300002D0FFF76FFE10BD5733C15A4908FFF793
:103F40009CFEF8E770B50300406A9B69202B28D0DF
:103F50005A230022C252EFF31084593B83F3108896
:103F600001680A681A4D2A400A6084F31088EFF34A
:103F7000108483F3108801688A689A438A6084F306
:103F80001088EFF3108183F310880268936840244F
:103F9000A343936081F310882023C367036E012B32
:103FA00005D0036E012B0ED006F07CFA70BDEFF346
:103FB000108183F3108802681368303CA3431360B8
:103FC00081F31088EDE75733C15AFFF756FEEDE74E
:103FD000FFFEFFFF10B504008368026913434269C6
:103FE0001343C269134301680A68504802401343EF
:103FF0000B60226853684E490B40E1680B435360E5
:10400000A369226A1A4321688B684A480340134314
:104010008B602368484A934222D0484A934230D06A
:104020001023E06980221202904234D0042B00D188
:1040300074E062D8002B00D169E0022B5BD14048CC
:1040400061684B081818FCF75FF80004000C0200C8
:10405000103A3C4B9A4266D82368D860002052E060
:10406000394B1A6B03231340022B0CD005D8002BBD
:104070000BD0012B0BD10333D3E7032B09D1013B29
:10408000CFE70023CDE70823CBE70023C9E71023C0
:10409000C7E71023C5E7042B2AD01FD8002B21D057
:1040A000022B19D12648400061684B08C018FCF764
:1040B0002BF883B20004000C01001039214A914210
:1040C0002FD80F2293431A004008072303401343BD
:1040D0002268D360002016E0012014E0082BE2D013
:1040E000012010E0FEF78EFF0028DCD100200AE05E
:1040F000FEF7B0FEF8E7012005E0082B02D1802092
:1041000000029DE7012000236366A36610BDFEF751
:1041100079FF002800D093E70020F4E7FEF79AFE2D
:10412000F7E70120EFE70120EDE7C046F369FFFF65
:10413000FFCFFFFFFFF4FFFF0038014000440040C5
:1041400000127A00EFFF000000100240436ADB0714
:1041500006D5026853682C490B40816A0B435360B3
:10416000436A9B0706D50268536828490B40C16A19
:104170000B435360436A5B0706D5026853682449C2
:104180000B40016B0B435360436A1B0706D5026863
:10419000536820490B40416B0B435360436ADB0675
:1041A00006D5026893681C490B40816B0B439360F2
:1041B000436A9B0606D50268936818490B40C16B99
:1041C0000B439360436A5B060BD50268536814493E
:1041D0000B40016C0B435360026C80235B039A42DB
:1041E0000AD0436A1B0606D5026853680D490B4086
:1041F000816C0B4353607047026853680A490B4057
:10420000416C0B435360ECE7FFFFFDFFFFFFFEFF38
:10421000FFFFFBFFFF7FFFFFFFEFFFFFFFDFFFFF62
:10422000FFFFEFFFFFFFF7FFFFFF9FFFF8B5CE4651
:10423000474680B506000D0017009946089B984632
:104240003368DC692C40641B63425C41BC4253D13F
:1042500043460133F4D0FEF7ADF84B46C01A404553
:104260002CD84346002B29D0326813685B07E7D56A
:10427000D3691B05E4D580231B011362EFF3108083
:10428000012282F3108831680B681E4C23400B60BA
:1042900080F31088EFF3108082F3108831688B6808
:1042A00093438B6080F310882023B367F3677F32DA
:1042B000B35054330022F25403201EE0EFF3108079
:1042C000012282F3108831680B680E4C23400B608A
:1042D00080F31088EFF3108082F3108831688B68C8
:1042E00093438B6080F310882023B367F3675433C4
:1042F0000022F254032000E00020C0BCB946B046C2
:10430000F8BDC0465FFEFFFF30B583B004008023D8
:104310000022C250FEF74EF8050023681B681B07F9
:104320000DD423681B685B0716D42023A367E367BB
:10433000002323667422A354002003B030BD8021E3
:104340000C4B00930300002289032000FFF76EFF4F
:104350000028E6D00320F0E78021064B00932B00D5
:104360000022C9032000FFF761FF0028DDD00320F1
:10437000E3E7C046FFFFFF0110B5041E2ED0836F98
:10438000002B21D02423A3672268136801218B43CB
:1043900013602000FFF71EFE012814D0636A002B73
:1043A00018D1226853680E490B4053602268936805
:1043B00008218B4393602268136807390B4313600D
:1043C0002000FFF7A1FF10BD74330022C25406F095
:1043D000DDF8D7E72000FFF7B9FEE2E70120F2E7BA
:1043E000FFF7FFFF70B504001300416558228352A8
:1043F0002832002181505E3AC267026F002A12D033
:1044000021499162026F2149D162026F20491163F3
:10441000026F0021516301682431426D006FFEF785
:104420009FF8002826D174230022E254EFF3108075
:10443000733B83F3108821680D680132FF322A43F1
:104440000A6080F31088EFF3108083F310882168EE
:104450008A681A438A6080F31088EFF3108183F32F
:1044600010882268936840200343936081F310888A
:10447000002070BD80231022E2500C3B0022E25449
:10448000543BE3670120F4E7453F0008293F00085B
:10449000193C000870B5C36F202B2CD100292CD0FB
:1044A000002A2CD0846880235B019C421CD074239A
:1044B000C35C012B25D074230124C454002303665C
:1044C00003685B681B020CD5EFF3108C012383F3A8
:1044D0001088046825688023DB042B4323608CF359
:1044E0001088FFF77FFF07E00369002BDFD1CB07C0
:1044F000DDD5012000E0022070BD0120FCE7012095
:10450000FAE70220F8E7000010B500210E2004F0C1
:104510008FFC0E2004F0BCFC00280DD00E2004F00F
:10452000DBFC012838D0022848D000280CD000211C
:104530000E2004F0BFFC10BD0E3004F083FC0021FF
:104540000E2004F0B7FCE9E703F044F8032813D089
:10455000092005F079FF002816D1002003F050F85B
:104560000128E8D1FA210901073005F067FF012190
:104570000E2004F09FFCDEE7013803F015FB17491D
:10458000092005F05BFFE8E7002003F00DFBC821E0
:10459000092005F053FFE0E7082005F055FF00284B
:1045A000C9D0FA21C900082005F048FF012003F016
:1045B000F5FA02210E2004F07DFCBCE7082005F08E
:1045C00043FF0028B7D0012003F01AF8002003F0C1
:1045D000E5FA00210E2004F06DFCACE7B80B0000FA
:1045E00010B5FDF7E7FE034B9C466044024B586054
:1045F00010BDC046881300004000002010B5032104
:104600000D2004F015FC0D2004F042FC002809D018
:104610000D2004F061FC0A2800D907E28000CC4B91
:104620001B589F460D3004F00DFC00210D2004F0B6
:1046300041FC012004F0E6F8EAE7012004F0E2F88A
:1046400004F0DAF8040002F0C5FF01281AD002F0E5
:10465000C1FF02281BD0032C1ED0012C2ED0022C0F
:1046600039D0042C44D0002C51D102F0B3FF0128E2
:104670004DD002F0AFFF022849D002210D2004F0F6
:1046800019FC44E003210C3004F014FCDFE70521A1
:104690000B3004F00FFCDEE7FA24A40021000D200B
:1046A00005F0CCFE21000E2005F0C8FEA94B01222A
:1046B0001A7008210D2004F0FDFB28E0FA21890082
:1046C0000D2005F0BBFEA34B01221A7008210D201E
:1046D00004F0F0FBC3E7FA2189000E2005F0AEFEDE
:1046E0009C4B01221A7008210D2004F0E3FBB8E76F
:1046F000984B00221A7008210D2004F0DBFBB2E772
:10470000012003F069FA00210D2004F0D3FB0E20F4
:1047100005F09AFE002800D08DE1013003F064FE20
:104720000D2005F091FE002800D088E1013003F053
:104730007FFE10BD002003F04FFA02F04BFF01286E
:1047400010D102F047FF022816D102F043FF0128E2
:1047500003D002F03FFF022818D100210D2004F001
:10476000A9FBD4E7012003F0B5F9052306220121B6
:10477000002003F0DBF9E4E7012003F0ABF90523A7
:1047800006220121012003F0D1F9DEE772490D2054
:1047900004F028FBBBE7022004F034F805230122D3
:1047A0000221002003F0C2F900230022022101208F
:1047B00003F0BCF9002003F00FFA032003F08AF99C
:1047C00066490C2005F03AFE04210D2004F072FB2E
:1047D0009DE704F011F8040002F0FCFE012814D15A
:1047E000042C39D0052C24D0022C00D08FE70023D4
:1047F00000220221012003F099F9564B04221A707D
:104800000A210D2004F056FB81E702F0E3FE0228A6
:10481000E6D00C2005F018FE0128E1D1002003F0BD
:10482000C9F9012003F056F94B490D2004F0DAFADA
:104830007FE7002304220221022003F077F9FA2106
:104840008900122005F0FAFD012003F0B3F90721D9
:104850000D2004F02FFB5AE7002300220221022042
:1048600003F064F93B4B04221A700A210D2004F076
:1048700021FB4CE7032003F0C5FF052301220221A1
:10488000012003F053F9002300220221002003F04D
:104890004DF9002003F0A0F930490C2005F0CEFDC1
:1048A000032003F017F906210D2004F003FB2EE787
:1048B00002F090FE012803D002F08CFE022816D1EF
:1048C00003F09AFF042835D0052820D0012800D015
:1048D0001DE7002300220221002003F027F91D4BD1
:1048E00006221A700A210D2004F0E4FA0FE70C20CA
:1048F00005F0AAFD0128E3D1002003F05BF90120B7
:1049000003F0E8F814490D2004F06CFA11E70023D5
:1049100004220221022003F009F9FA218900122061
:1049200005F08CFD012003F045F907210D2004F06E
:10493000C1FAECE6002300220221022003F0F6F87F
:10494000044B06221A700A210D2004F0B3FADEE6A9
:10495000C8A700087C000020E95A0008983A000027
:1049600002F038FE012800D1D1E602F033FE022821
:1049700000D1CCE6002003F01DF9012003F0AAF8D5
:10498000052306220121022003F0D0F82E490D2034
:1049900004F028FABBE603F02FFF03280ED001280D
:1049A00019D002281ED0042823D0042003F092F846
:1049B000264B19780D2004F07DFAA8E60523002285
:1049C0000221002003F0B2F800230022022101207E
:1049D00003F0ACF8E9E7002300220221002003F0F5
:1049E000A5F8E2E7002300220221013803F09EF837
:1049F000DBE703F06FF8002300220221022003F01E
:104A000095F8D2E70B2005F01FFD012805D00F4BCC
:104A100019780D2004F04EFA79E6FA2189000A305F
:104A200005F00CFD042003F055F8F0E706490D20D1
:104A300004F0D8F96BE6002003F0D6FC70E6002005
:104A400003F0F6FC75E6C046E95A00087C00002039
:104A500010B502210D2004F0EBF90D2004F018FA36
:104A6000002809D00D2004F037FA082800D9EAE11F
:104A70008000CC4B1B589F460D3004F0E3F9002119
:104A80000D2004F017FA012003F0BCFEEAE7012034
:104A900003F0B8FE03F0B0FE040002F09BFD012815
:104AA00034D002F097FD022835D0022C43D0042CDC
:104AB0004CD0012C34D0BC4BDB7B042B5CD8BA4BE4
:104AC0009B7C042B5FD8B84BDB7B042B6CD801207C
:104AD00003F000F8002306220121022003F026F84B
:104AE00002F078FD01285FD002F074FD02285BD04F
:104AF000012002F0EFFF002306220121022003F033
:104B000015F8AA490D2004F06DF94DE002210C3092
:104B100004F0D0F9C5E704210B3004F0CBF9C4E769
:104B2000002300220221002003F000F801210D20C3
:104B300004F0C0F938E0002300220221012002F035
:104B4000F5FF01210D2004F0B5F92DE0002300222E
:104B50000221022002F0EAFF042002F0BBFFFA214A
:104B600049000B2005F06AFC914B00221A700821C5
:104B70000D2004F09FF917E00023002202210120FC
:104B800002F0D4FF9BE7002300220221002002F064
:104B9000CDFF09E0012003F01FF8012002F09AFF89
:104BA00082490D2004F01EF97F4BDA7B24215B5CE7
:104BB0009A4200D14CE14A2A02D84A2B00D852E14D
:104BC000794A2521525C4A2A00D849E1764AD373B2
:104BD000754AD27B934200D952E1734B9A7C2521CE
:104BE0005B5C9A4209D203F007FE022800D152E131
:104BF00003F002FE032800D14DE16B4BD87B242249
:104C00009854997C0132995403F0A8FB10BD0220FE
:104C100003F0F8FD002301220221002002F086FFAC
:104C2000002300220221012002F080FF002002F078
:104C3000D3FF60490C2005F001FC5D4B03221A7084
:104C400007210D2004F036F9AEE703F0D5FD04008E
:104C500002F0C0FC01280FD1042C34D0052C1FD049
:104C6000022CA1D1002300220221012002F05EFFCC
:104C7000042002F02FFF97E702F0ACFC0228EBD0F3
:104C80000C2005F0E1FB0128E6D1002002F092FFA4
:104C9000012002F01FFF45490D2004F0A3F8B5E7FD
:104CA000002304220221022002F040FFFA218900A1
:104CB000122005F0C3FB012002F07CFF06210D202D
:104CC00004F0F8F870E7002300220221022002F02D
:104CD0002DFF042002F0FEFE66E7032003F092FDA4
:104CE000002301220221012002F020FF00230022E4
:104CF0000221002002F01AFF002002F06DFF2D4972
:104D00000C2005F09BFB032002F0E4FEFA21490091
:104D10000B2005F093FB07210D2004F0CBF8244B6A
:104D200005221A7040E702F055FC012803D002F07A
:104D300051FC022812D103F05FFD04283CD0052865
:104D40001CD0012800D02FE7042002F0C3FE00236E
:104D500000220221002002F0E9FE25E70C2005F0E8
:104D600073FB0128E7D1002002F024FF012002F0AC
:104D7000B1FE0E490D2004F035F847E70023042268
:104D80000221022002F0D2FEFA218900122005F051
:104D900055FB012002F00EFF06210D2004F08AF8D9
:104DA00002E7C046F4A700084C000020E95A0008BA
:104DB0007C000020983A0000042002F08BFE0023C3
:104DC00000220221022002F0B1FEEDE602F002FC18
:104DD000012800D1E8E602F0FDFB022800D1E3E65D
:104DE000002002F0E7FE012002F074FE2B490D20A6
:104DF00003F0F8FFD8E60B2005F026FB012805D0CC
:104E0000274B19780D2004F055F8CDE6023002F05A
:104E100061FEFA2149000B2005F010FBF0E70B20A2
:104E200005F012FB012805D01D4B19780D2004F068
:104E300041F8B9E6033002F04DFEFA2149000B209B
:104E400005F0FCFAF0E715490D2003F0CBFFABE6C7
:104E50001449887C2524095D884200D0ABE6D5E65C
:104E600010498A74B4E60F4A927C4A2A05D80D4A42
:104E70002521525C4A2A00D8AAE60A4AD373A7E63B
:104E800003F0BAFC012804D003F0B6FC032800D0DC
:104E9000A3E6C046BAE6C046B8E6C046E95A0008EE
:104EA0007C0000204C000020014B01221A7070474A
:104EB0003C00002010B5034B00221A70002002F0C5
:104EC0008BFE10BD3C00002070B504210D2003F0C6
:104ED000AFFF0D2003F0DCFF002809D00D2003F008
:104EE000FBFF0D2800D9DBE28000C84B1B589F4612
:104EF0000D3003F0A7FF00210D2003F0DBFFC44BB2
:104F000000225A70002003F0B7FA012003F07AFC67
:104F1000FA218900122005F091FA052306220121C9
:104F2000022002F003FED9E7002003F0DFFEB94BB8
:104F30001870012003F066FC03F05EFC040005001D
:104F400002F048FB012825D002F044FB022832D0B1
:104F5000B14B1B78012B40D0B04A1278012A58D1AE
:104F6000013CE4B2012C01D9042D59D1A94A12788F
:104F7000002A55D0002B53D1A94B1B78002B4FD1C1
:104F80000D210D2003F096FFA64B01221A70A34BB2
:104F90001A7045E0012CD7D002F09CFDFFF78AFF84
:104FA00004210D2003F086FF9C4B01221A709A4BBE
:104FB00000221A70C8E7022DCAD0013802F08AFD1B
:104FC000FFF778FF02210D2003F074FF924B0122BE
:104FD0001A70924B00221A70BAE7013CE4B2012C1D
:104FE00001D9042D1CD18B4B1B78002B18D08B4B77
:104FF0001B78002B14D18A4B1B78002B10D10C216D
:105000000D2003F057FF874B01221A70824B1A7054
:1050100006E07F4B00221A7008210D2003F04AFFA2
:10502000002D12D1FFF746FF02F0D4FA01280CD070
:1050300002F0D0FA022808D001210D2003F03AFF37
:1050400003E002210D2003F035FF70BD04210D2087
:1050500003F030FFF9E702F0BDFA012803D002F0B7
:10506000B9FA022804D100210D2003F023FFECE758
:105070000C2005F0E9F9012807D0654B00221A70D1
:105080000A210D2003F016FFDFE7FA2149000B305B
:1050900005F0D4F9002003F0EFF9EEE7002000F06E
:1050A00065FF022003F0AEFB022003F0E5F90523C3
:1050B00001220221002002F039FD002300220221FA
:1050C000012002F033FD58490C2005F0B7F9032107
:1050D0000D2003F0EFFEB8E703F08EFB040002F0B2
:1050E00079FA012810D1042C37D0052C20D0022CBD
:1050F000ABD1012003F086FB454B03221A70072138
:105100000D2003F0D7FEA0E702F064FA0228EAD0EF
:105110000C2005F099F90128E5D1002002F04AFDA4
:10512000012002F0D7FC00210D2003F0C3FE8CE724
:10513000002304220221022002F0F8FC3B490C204B
:1051400005F07CF9324B03225A70012002F032FD47
:1051500006210D2003F0AEFE77E700230022022196
:10516000022002F0E3FC2A4B03221A700B210D20CF
:1051700003F0A0FE69E7002000F0F8FE032003F032
:1051800041FB012003F078F90023002202210020D6
:1051900002F0CCFC052301220221012002F0C6FC12
:1051A00021490C2005F04AF905210D2003F082FE6B
:1051B0004BE702F00FFA012803D002F00BFA0228A5
:1051C00013D103F019FB042847D0052830D001285B
:1051D00000D03AE7012003F015FB0D4B05221A70B1
:1051E00007210D2003F066FE2FE70C2005F02CF9B7
:1051F0000128E6D1002002F0DDFC012002F06AFC6B
:1052000000210D2003F056FE1FE7C04618A8000835
:105210007C0000207800002076000020750000202F
:105220007400002077000020983A000088130000E6
:10523000002304220221022002F078FC9B490C206A
:1052400005F0FCF89A4B05225A70012002F0B2FCDE
:1052500006210D2003F02EFEF7E600230022022196
:10526000022002F063FC924B05221A700B210D20E4
:1052700003F020FEE9E603F0BFFA040003281ED085
:1052800001282CD0022834D004283CD0002C0BD18B
:10529000874B1B78032B3DD0052B4FD0002002F00D
:1052A0009BFC032002F016FC0C2005F0CDF8012831
:1052B00000D0CAE600210C3003F0FCFDC5E6002357
:1052C00000220221002002F031FC002300220221F2
:1052D000012002F02BFC042002F0FCFBD6E70023A7
:1052E00000220221002002F021FC042002F0F2FB47
:1052F000CCE7002300220221012002F017FC042049
:1053000002F0E8FBC2E7002300220221022002F0A3
:105310000DFCBBE7022003F075FA052301220221F0
:10532000002002F003FC002300220221012002F0F1
:10533000FDFB03210D2003F0BDFDAFE7032003F0CB
:1053400061FA052301220221012002F0EFFB002374
:1053500000220221002002F0E9FB05210D2003F0CC
:10536000A9FD9BE7524B5B78032B02D0052B00D0A5
:105370006BE60C2005F068F8012824D002F02AF929
:10538000012800D161E602F025F9022800D15CE68F
:10539000132005F059F8012800D056E6002002F04D
:1053A00009FC012002F096FB0523062201210220C0
:1053B00002F0BCFB3D490C2005F040F800210D2017
:1053C00003F078FD41E600210C3003F073FDD5E7D2
:1053D00003F012FA03280BD0012816D002281ED0A1
:1053E000042826D0324B19780D2003F063FD2CE6FB
:1053F000002300220221002002F098FB002300225B
:105400000221012002F092FBECE7033002F062FB84
:10541000002300220221002002F088FBE2E7023094
:1054200002F058FB002300220221012002F07EFB43
:10543000D8E7FFF739FD002300220221022002F005
:1054400075FBCFE7122004F0FFFF012808D00120F0
:1054500002F040FB164B19780D2003F02BFDF4E50C
:10546000052306220121013002F060FBFA218900A8
:10547000122004F0E3FFEAE70B2004F0E5FF012827
:1054800005D00B4B19780D2003F014FDDDE5FA2152
:1054900049000A3004F0D2FF042002F01BFBF0E7C1
:1054A00000210D2003F006FDCFE5C0468813000063
:1054B0007C000020014B18787047C0463C0000205B
:1054C00010B5074A0C2103F00DF8002803D1054B55
:1054D00001221A7010BD034B02221A70FAE7C0466F
:1054E0005900002079000020024B187800221A7021
:1054F0007047C0467900002010B582B000210F200F
:1055000003F096FC0F2003F0C3FC00283FD00F20CF
:1055100003F0E2FC022800D1C9E049D800284ED0AF
:1055200001285DD1FFF7E0FF012800D172E00228D9
:1055300056D1B04A536801335360AF4CFF232374F4
:10554000A373E373E3746374A37400232375637517
:10555000637BA27B12021A43E37B1B041343227C6E
:1055600012061A43617C0B020B4309041943237D85
:105570001B060B436946607D08700C21200002F079
:10558000E8FF01002073200004F070FF28E00F30D6
:1055900003F058FC00210F2003F08CFC964B0022F6
:1055A0001A83DA611A62954B1A70954B1A70AEE73E
:1055B000032815D100210F2003F07CFC10E002F03D
:1055C00009F801280ED0022814D08C4B1B78022B2E
:1055D00018D08B4B1B78022B18D00F2003F08EFCB9
:1055E00002B010BD854B1B78002BF6D1834B0122F6
:1055F0001A70F2E7824B1B78002BEED1804B012210
:105600001A70EAE77D4B00221A70E2E77C4B002219
:105610001A70E2E7774A136801331360774B1B78FF
:10562000012B33D0764B1B78012B33D0724C637B2C
:10563000A27B12021A43E37B1B041343227C120653
:105640001A43617CA37C1B020B43E17C09041943D0
:10565000237D1B060B436946607D08700C212000EA
:1056600002F077FF20730123A375644B1B78002B96
:1056700003D1634B1B78002B10D002210F2003F0C5
:1056800019FC5D48017B04F0F1FEA9E75A4B0122A9
:105690001A75C7E7584B01225A75C7E7564B0022C7
:1056A0001A755A7503210F2003F004FCE9E7FFF790
:1056B0001BFF012830D0022800D091E74D4A5368E3
:1056C000013353604C4CFF232374A373E373E374DF
:1056D0006374A374002323756375637BA27B12023A
:1056E0001A43E37B1B041343227C12061A43617C9A
:1056F0000B020B4309041943237D1B060B43694628
:10570000607D08700C21200002F023FF010020734F
:10571000200004F0ABFE63E7364A136801331360E0
:10572000364B1B78012B14D1334B1B7A002B05D140
:10573000314B01221A75314B1A7014E02E4B0022A6
:105740001A752E4B02321A7003210F2003F0B2FBA0
:1057500009E0294B00221A75284B02321A700321E6
:105760000F2003F0A7FB264B1B78012B14D1224BF3
:105770005B7A002B05D1204B01225A75204B1A7001
:1057800014E01D4B00225A751D4B02321A70032182
:105790000F2003F08FFB09E0174B00225A75184BBE
:1057A00002321A7003210F2003F084FB124C637B3A
:1057B000A27B12021A43E37B1B041343227C1206D2
:1057C0001A43617CA37C1B020B43E17C090419434F
:1057D000237D1B060B436946607D08700C21200069
:1057E00002F0B7FE010020730123A375200004F02E
:1057F0003DFEF5E6340000204C0000203100002082
:105800003000002010B512480C22002104F047FFA0
:10581000104B2622002199540D2003F0EDFA0E4979
:105820000D2003F0DFFA0E2003F0E6FA0B490E20FC
:1058300003F0D8FA0F2003F0DFFA09490F2003F034
:10584000D1FAFEF7CDFE02F0FDFC02F0C9FF10BD5B
:10585000400000204C0000201159000809450008B4
:10586000F954000810B50B2004F0EEFD002804D018
:10587000FFF720FE012804D010BD033002F02AF902
:10588000F6E7163004F0E0FD0128F5D1FA214900D1
:10589000163004F0D3FD02F0B1F9002803D1013035
:1058A00002F09AF9E8E7002002F096F9E4E710B573
:1058B000FFF7D8FF10BD70B5002001F083FE434212
:1058C0005841C6B2012001F07DFE43425841C5B2A5
:1058D000022001F077FE43425841C4B2032001F098
:1058E00071FE434258416400A41980002018ED0065
:1058F000401970BD10B5FFF7DEFF002800D110BDC4
:10590000FA2149000A2004F099FD0120F7E7000080
:1059100010B500210D2003F08BFA0D2003F0B8FA2A
:1059200000280DD0FFF7E6FF00281ED00D2003F061
:10593000D3FA072800D98DE08000654B1B589F469D
:105940000D3003F07FFA00210D2003F0B3FAFA21A5
:1059500049000A2004F072FDFEF742FE5D4B8022F2
:105960009A615D4B00221A70DCE7002303220121BB
:10597000023002F0DBF8D9E7042002F0ABF8FFF7C1
:10598000B9FF00280AD0002300220221022002F0E1
:10599000CDF807210D2003F08DFA5BE00D2003F018
:1059A000ADFA57E0FA2149000A2004F047FDFFF75D
:1059B000A1FF00280DD0002300220221022002F0C6
:1059C000B5F8042002F086F807210D2003F072FAE2
:1059D00040E0002002F06CFC0D2003F08FFA39E06B
:1059E000FA2149000A2004F029FD02F0B1FC032845
:1059F00030D10A3003F082FA2CE0022002F06CFC75
:105A000000280BD0344A13780133DBB21370012B1A
:105A10000CD904210D2003F04DFA1BE0013002F0F7
:105A200059F82E490D2003F0DDF913E001210D2076
:105A300003F040FA0EE0002306220221022002F0C9
:105A400075F8012002F046F8FEF7CAFD24490D2042
:105A500003F0C8F910BD012002F03CF8FA2149001A
:105A60000A2004F0EBFC1F49112004F0E7FC052399
:105A700000220221022002F059F806210D2003F035
:105A800019FAE7E7112004F0DFFC0128E2D1124BFC
:105A900000221A70002303320221013002F046F87E
:105AA00000210D2003F006FAD4E7FFF723FF0028BA
:105AB000D0D1002303220221023002F037F8012066
:105AC00002F008F800210D2003F0F4F9C2E7C04607
:105AD00050A800080014004840000020C94E0008EB
